{
  "_format": "hh-sol-artifact-1",
  "contractName": "MockV3Aggregator",
  "sourceName": "contracts/MockV3Aggregator.sol",
  "abi": [
    {
      "inputs": [
        {
          "internalType": "uint8",
          "name": "_decimals",
          "type": "uint8"
        },
        {
          "internalType": "int256",
          "name": "_initialAnswer",
          "type": "int256"
        }
      ],
      "stateMutability": "nonpayable",
      "type": "constructor"
    },
    {
      "inputs": [],
      "name": "decimals",
      "outputs": [
        {
          "internalType": "uint8",
          "name": "",
          "type": "uint8"
        }
      ],
      "stateMutability": "view",
      "type": "function"
    },
    {
      "inputs": [],
      "name": "latestRoundData",
      "outputs": [
        {
          "internalType": "uint80",
          "name": "roundId",
          "type": "uint80"
        },
        {
          "internalType": "int256",
          "name": "answer",
          "type": "int256"
        },
        {
          "internalType": "uint256",
          "name": "startedAt",
          "type": "uint256"
        },
        {
          "internalType": "uint256",
          "name": "updatedAt",
          "type": "uint256"
        },
        {
          "internalType": "uint80",
          "name": "answeredInRound",
          "type": "uint80"
        }
      ],
      "stateMutability": "view",
      "type": "function"
    },
    {
      "inputs": [
        {
          "internalType": "int256",
          "name": "answer_",
          "type": "int256"
        }
      ],
      "name": "updateAnswer",
      "outputs": [],
      "stateMutability": "nonpayable",
      "type": "function"
    }
  ],
  "bytecode": "0x608060405234801561001057600080fd5b5060405161055738038061055783398181016040528101906100329190610139565b816000806101000a81548160ff021916908360ff16021790555061005b8161006260201b60201c565b50506101fc565b806001819055506001600260008282829054906101000a900469ffffffffffffffffffff1661009191906101be565b92506101000a81548169ffffffffffffffffffff021916908369ffffffffffffffffffff1602179055504260038190555050565b600080fd5b600060ff82169050919050565b6100e0816100ca565b81146100eb57600080fd5b50565b6000815190506100fd816100d7565b92915050565b6000819050919050565b61011681610103565b811461012157600080fd5b50565b6000815190506101338161010d565b92915050565b600080604083850312156101505761014f6100c5565b5b600061015e858286016100ee565b925050602061016f85828601610124565b9150509250929050565b600069ffffffffffffffffffff82169050919050565b7f4e487b7100000000000000000000000000000000000000000000000000000000600052601160045260246000fd5b60006101c982610179565b91506101d483610179565b9250828201905069ffffffffffffffffffff8111156101f6576101f561018f565b5b92915050565b61034c8061020b6000396000f3fe608060405234801561001057600080fd5b50600436106100415760003560e01c8063313ce56714610046578063a87a20ce14610064578063feaf968c14610080575b600080fd5b61004e6100a2565b60405161005b9190610186565b60405180910390f35b61007e600480360381019061007991906101dc565b6100b3565b005b610088610116565b604051610099959493929190610256565b60405180910390f35b60008054906101000a900460ff1681565b806001819055506001600260008282829054906101000a900469ffffffffffffffffffff166100e291906102d8565b92506101000a81548169ffffffffffffffffffff021916908369ffffffffffffffffffff1602179055504260038190555050565b6000806000806000600260009054906101000a900469ffffffffffffffffffff16600154600354600354600260009054906101000a900469ffffffffffffffffffff16945094509450945094509091929394565b600060ff82169050919050565b6101808161016a565b82525050565b600060208201905061019b6000830184610177565b92915050565b600080fd5b6000819050919050565b6101b9816101a6565b81146101c457600080fd5b50565b6000813590506101d6816101b0565b92915050565b6000602082840312156101f2576101f16101a1565b5b6000610200848285016101c7565b91505092915050565b600069ffffffffffffffffffff82169050919050565b61022881610209565b82525050565b610237816101a6565b82525050565b6000819050919050565b6102508161023d565b82525050565b600060a08201905061026b600083018861021f565b610278602083018761022e565b6102856040830186610247565b6102926060830185610247565b61029f608083018461021f565b9695505050505050565b7f4e487b7100000000000000000000000000000000000000000000000000000000600052601160045260246000fd5b60006102e382610209565b91506102ee83610209565b9250828201905069ffffffffffffffffffff8111156103105761030f6102a9565b5b9291505056fea264697066735822122075edfbad716684fbd922628faa855ceb960da3a7084e754a1a46aeea8f60abae64736f6c63430008110033",
  "linkReferences": {},
  "deployedLinkReferences": {}
}